{
  "contractName": "SimpleContract",
  "abi": [
    {
      "constant": true,
      "inputs": [],
      "name": "number",
      "outputs": [
        {
          "name": "",
          "type": "uint256"
        }
      ],
      "payable": false,
      "stateMutability": "view",
      "type": "function"
    }
  ],
  "bytecode": "0x60806040526001600055348015601457600080fd5b50609e806100236000396000f300608060405260043610603f576000357c0100000000000000000000000000000000000000000000000000000000900463ffffffff1680638381f58a146044575b600080fd5b348015604f57600080fd5b506056606c565b6040518082815260200191505060405180910390f35b600054815600a165627a7a723058203adc0e50d3da233996d9323055d1a76fb3b3bff2eafaf9cb2c303183bf5b519f0029",
  "source": "pragma solidity ^0.4.22;\r\n\r\ncontract SimpleContract {\r\n    uint256 public number = 1;\r\n}",
  "sourcePath": "E:\\Projects\\Solidity\\ether-loto\\contracts\\simplecontract.sol",
  "compiler": {
    "name": "solc",
    "version": "0.4.24+commit.e67f0147.Emscripten.clang"
  },
  "schemaVersion": "2.0.1",
  "updatedAt": "2018-09-07T17:01:33.166Z"
}