{
  "contractName": "SimpleAuction",
  "abi": [
    {
      "constant": true,
      "inputs": [],
      "name": "beneficiary",
      "outputs": [
        {
          "name": "",
          "type": "address"
        }
      ],
      "payable": false,
      "stateMutability": "view",
      "type": "function"
    },
    {
      "constant": true,
      "inputs": [],
      "name": "highestBidder",
      "outputs": [
        {
          "name": "",
          "type": "address"
        }
      ],
      "payable": false,
      "stateMutability": "view",
      "type": "function"
    },
    {
      "constant": true,
      "inputs": [],
      "name": "highestBid",
      "outputs": [
        {
          "name": "",
          "type": "uint256"
        }
      ],
      "payable": false,
      "stateMutability": "view",
      "type": "function"
    },
    {
      "inputs": [
        {
          "name": "_biddingTime",
          "type": "uint256"
        },
        {
          "name": "_beneficiary",
          "type": "address"
        }
      ],
      "payable": false,
      "stateMutability": "nonpayable",
      "type": "constructor"
    },
    {
      "anonymous": false,
      "inputs": [
        {
          "indexed": false,
          "name": "bidder",
          "type": "address"
        },
        {
          "indexed": false,
          "name": "amount",
          "type": "uint256"
        }
      ],
      "name": "HighestBidIncreased",
      "type": "event"
    },
    {
      "anonymous": false,
      "inputs": [
        {
          "indexed": false,
          "name": "winner",
          "type": "address"
        },
        {
          "indexed": false,
          "name": "amount",
          "type": "uint256"
        }
      ],
      "name": "AuctionEnded",
      "type": "event"
    },
    {
      "constant": false,
      "inputs": [],
      "name": "bid",
      "outputs": [],
      "payable": true,
      "stateMutability": "payable",
      "type": "function"
    },
    {
      "constant": false,
      "inputs": [],
      "name": "withdraw",
      "outputs": [
        {
          "name": "",
          "type": "bool"
        }
      ],
      "payable": false,
      "stateMutability": "nonpayable",
      "type": "function"
    },
    {
      "constant": false,
      "inputs": [],
      "name": "auctionEnd",
      "outputs": [],
      "payable": false,
      "stateMutability": "nonpayable",
      "type": "function"
    }
  ],
  "bytecode": "0x608060405234801561001057600080fd5b506040516040806108408339810180604052810190808051906020019092919080519060200190929190505050806000806101000a81548173ffffffffffffffffffffffffffffffffffffffff021916908373ffffffffffffffffffffffffffffffffffffffff16021790555081420160018190555050506107a9806100976000396000f300608060405260043610610078576000357c0100000000000000000000000000000000000000000000000000000000900463ffffffff1680631998aeef1461007d5780632a24f46c1461008757806338af3eed1461009e5780633ccfd60b146100f557806391f9015714610124578063d57bde791461017b575b600080fd5b6100856101a6565b005b34801561009357600080fd5b5061009c6103cc565b005b3480156100aa57600080fd5b506100b3610607565b604051808273ffffffffffffffffffffffffffffffffffffffff1673ffffffffffffffffffffffffffffffffffffffff16815260200191505060405180910390f35b34801561010157600080fd5b5061010a61062c565b604051808215151515815260200191505060405180910390f35b34801561013057600080fd5b50610139610751565b604051808273ffffffffffffffffffffffffffffffffffffffff1673ffffffffffffffffffffffffffffffffffffffff16815260200191505060405180910390f35b34801561018757600080fd5b50610190610777565b6040518082815260200191505060405180910390f35b6001544211151515610220576040517f08c379a00000000000000000000000000000000000000000000000000000000081526004018080602001828103825260168152602001807f41756374696f6e20616c726561647920656e6465642e0000000000000000000081525060200191505060405180910390fd5b60035434111515610299576040517f08c379a000000000000000000000000000000000000000000000000000000000815260040180806020018281038252601e8152602001807f546865726520616c7265616479206973206120686967686572206269642e000081525060200191505060405180910390fd5b60006003541415156103175760035460046000600260009054906101000a900473ffffffffffffffffffffffffffffffffffffffff1673ffffffffffffffffffffffffffffffffffffffff1673ffffffffffffffffffffffffffffffffffffffff168152602001908152602001600020600082825401925050819055505b33600260006101000a81548173ffffffffffffffffffffffffffffffffffffffff021916908373ffffffffffffffffffffffffffffffffffffffff160217905550346003819055507ff4757a49b326036464bec6fe419a4ae38c8a02ce3e68bf0809674f6aab8ad3003334604051808373ffffffffffffffffffffffffffffffffffffffff1673ffffffffffffffffffffffffffffffffffffffff1681526020018281526020019250505060405180910390a1565b6001544210151515610446576040517f08c379a00000000000000000000000000000000000000000000000000000000081526004018080602001828103825260168152602001807f41756374696f6e206e6f742079657420656e6465642e0000000000000000000081525060200191505060405180910390fd5b600560009054906101000a900460ff161515156104f1576040517f08c379a00000000000000000000000000000000000000000000000000000000081526004018080602001828103825260238152602001807f61756374696f6e456e642068617320616c7265616479206265656e2063616c6c81526020017f65642e000000000000000000000000000000000000000000000000000000000081525060400191505060405180910390fd5b6001600560006101000a81548160ff0219169083151502179055507fdaec4582d5d9595688c8c98545fdd1c696d41c6aeaeb636737e84ed2f5c00eda600260009054906101000a900473ffffffffffffffffffffffffffffffffffffffff16600354604051808373ffffffffffffffffffffffffffffffffffffffff1673ffffffffffffffffffffffffffffffffffffffff1681526020018281526020019250505060405180910390a16000809054906101000a900473ffffffffffffffffffffffffffffffffffffffff1673ffffffffffffffffffffffffffffffffffffffff166108fc6003549081150290604051600060405180830381858888f19350505050158015610604573d6000803e3d6000fd5b50565b6000809054906101000a900473ffffffffffffffffffffffffffffffffffffffff1681565b600080600460003373ffffffffffffffffffffffffffffffffffffffff1673ffffffffffffffffffffffffffffffffffffffff1681526020019081526020016000205490506000811115610748576000600460003373ffffffffffffffffffffffffffffffffffffffff1673ffffffffffffffffffffffffffffffffffffffff168152602001908152602001600020819055503373ffffffffffffffffffffffffffffffffffffffff166108fc829081150290604051600060405180830381858888f1935050505015156107475780600460003373ffffffffffffffffffffffffffffffffffffffff1673ffffffffffffffffffffffffffffffffffffffff168152602001908152602001600020819055506000915061074d565b5b600191505b5090565b600260009054906101000a900473ffffffffffffffffffffffffffffffffffffffff1681565b600354815600a165627a7a723058202a2b09b18fe0477e22ea13204f20d967a47d24f19572377a066850fec50ef95b0029",
  "source": "pragma solidity ^0.4.22;\r\n\r\ncontract SimpleAuction {\r\n    // Parameters of the auction. Times are either\r\n    // absolute unix timestamps (seconds since 1970-01-01)\r\n    // or time periods in seconds.\r\n    address public beneficiary;\r\n    uint public auctionEnd;\r\n\r\n    // Current state of the auction.\r\n    address public highestBidder;\r\n    uint public highestBid;\r\n\r\n    // Allowed withdrawals of previous bids\r\n    mapping(address => uint) pendingReturns;\r\n\r\n    // Set to true at the end, disallows any change\r\n    bool ended;\r\n\r\n    // Events that will be fired on changes.\r\n    event HighestBidIncreased(address bidder, uint amount);\r\n    event AuctionEnded(address winner, uint amount);\r\n\r\n    // The following is a so-called natspec comment,\r\n    // recognizable by the three slashes.\r\n    // It will be shown when the user is asked to\r\n    // confirm a transaction.\r\n\r\n    /// Create a simple auction with `_biddingTime`\r\n    /// seconds bidding time on behalf of the\r\n    /// beneficiary address `_beneficiary`.\r\n    constructor(\r\n        uint _biddingTime,\r\n        address _beneficiary\r\n    ) public {\r\n        beneficiary = _beneficiary;\r\n        auctionEnd = now + _biddingTime;\r\n    }\r\n\r\n    /// Bid on the auction with the value sent\r\n    /// together with this transaction.\r\n    /// The value will only be refunded if the\r\n    /// auction is not won.\r\n    function bid() public payable {\r\n        // No arguments are necessary, all\r\n        // information is already part of\r\n        // the transaction. The keyword payable\r\n        // is required for the function to\r\n        // be able to receive Ether.\r\n\r\n        // Revert the call if the bidding\r\n        // period is over.\r\n        require(\r\n            now <= auctionEnd,\r\n            \"Auction already ended.\"\r\n        );\r\n\r\n        // If the bid is not higher, send the\r\n        // money back.\r\n        require(\r\n            msg.value > highestBid,\r\n            \"There already is a higher bid.\"\r\n        );\r\n\r\n        if (highestBid != 0) {\r\n            // Sending back the money by simply using\r\n            // highestBidder.send(highestBid) is a security risk\r\n            // because it could execute an untrusted contract.\r\n            // It is always safer to let the recipients\r\n            // withdraw their money themselves.\r\n            pendingReturns[highestBidder] += highestBid;\r\n        }\r\n        highestBidder = msg.sender;\r\n        highestBid = msg.value;\r\n        emit HighestBidIncreased(msg.sender, msg.value);\r\n    }\r\n\r\n    /// Withdraw a bid that was overbid.\r\n    function withdraw() public returns (bool) {\r\n        uint amount = pendingReturns[msg.sender];\r\n        if (amount > 0) {\r\n            // It is important to set this to zero because the recipient\r\n            // can call this function again as part of the receiving call\r\n            // before `send` returns.\r\n            pendingReturns[msg.sender] = 0;\r\n\r\n            if (!msg.sender.send(amount)) {\r\n                // No need to call throw here, just reset the amount owing\r\n                pendingReturns[msg.sender] = amount;\r\n                return false;\r\n            }\r\n        }\r\n        return true;\r\n    }\r\n\r\n    /// End the auction and send the highest bid\r\n    /// to the beneficiary.\r\n    function auctionEnd() public {\r\n        // It is a good guideline to structure functions that interact\r\n        // with other contracts (i.e. they call functions or send Ether)\r\n        // into three phases:\r\n        // 1. checking conditions\r\n        // 2. performing actions (potentially changing conditions)\r\n        // 3. interacting with other contracts\r\n        // If these phases are mixed up, the other contract could call\r\n        // back into the current contract and modify the state or cause\r\n        // effects (ether payout) to be performed multiple times.\r\n        // If functions called internally include interaction with external\r\n        // contracts, they also have to be considered interaction with\r\n        // external contracts.\r\n\r\n        // 1. Conditions\r\n        require(now >= auctionEnd, \"Auction not yet ended.\");\r\n        require(!ended, \"auctionEnd has already been called.\");\r\n\r\n        // 2. Effects\r\n        ended = true;\r\n        emit AuctionEnded(highestBidder, highestBid);\r\n\r\n        // 3. Interaction\r\n        beneficiary.transfer(highestBid);\r\n    }\r\n}",
  "sourcePath": "E:\\Projects\\Solidity\\ether-loto\\contracts\\simpleauction.sol",
  "compiler": {
    "name": "solc",
    "version": "0.4.24+commit.e67f0147.Emscripten.clang"
  },
  "schemaVersion": "2.0.1",
  "updatedAt": "2018-09-07T16:57:18.102Z"
}